:020000040800F2
:10000000900700209D010008A5010008A701000835
:10001000A9010008AB010008AD01000800000000C4
:10002000000000000000000000000000AF01000818
:10003000B101000800000000B3010008B50100088C
:10004000B7010008B7010008B70100080000000070
:1000500000000000B7010008B7010008B701000860
:10006000B701000800000000B7010008B701000850
:10007000B701000800000000B7010008B701000840
:10008000B7010008B701000800000000B701000830
:10009000B7010008000000000000000000000000A0
:1000A000000000000000000000000000B701000890
:1000B000B7010008B7010008B7010008B701000840
:1000C00000F002F800F041F80AA090E8000C824429
:1000D0008344AAF10107DA4501D100F036F8AFF206
:1000E000090EBAE80F0013F0010F18BFFB1A43F016
:1000F000010318470820000028200000103A24BF00
:1001000078C878C1FAD8520724BF30C830C144BF7C
:1001100004680C60704700000023002400250026BE
:10012000103A28BF78C1FBD8520728BF30C148BF5A
:100130000B607047642900F09980002070471FB55C
:1001400000F0E5F81FBD10B510BD00F062F91146D2
:10015000FFF7F5FF01F072F800F080F903B4FFF744
:10016000F2FF03BC00F08AF90B49D1F800C04A68DD
:100170005CF8043B1068184442F8040B8C4528BF17
:10018000A1F1DC0C8A4228BFA1F1DC02C1F800C059
:100190004A6020F00040704728010020094880474D
:1001A00009480047FEE7FEE7FEE7FEE7FEE7FEE759
:1001B000FEE7FEE7FEE7FEE704480549054A064B71
:1001C0007047000009100008C100000890010020DD
:1001D0009007002090030020900300200FB41CB56E
:1001E000074B06AA7B4469460090059800F0F9F891
:1001F0000020694600F008F91CBC5DF814FB000003
:10020000210200002DE9F0410E4604460020206244
:100210002046E168884730B3252805D0D4E901217C
:100220009047206A401CF2E7E16820460027884793
:10023000050018D0A5F14100192802D820354FF447
:1002400000673246294620462760FFF773FF40B11A
:10025000012804D0F61D26F007060836D8E7361D1B
:10026000D6E72846DAE7206ABDE8F0812DE9F041BB
:100270000646002410687529314616A510D0AFF344
:100280000080002802DA404213A507E031688A079F
:1002900001D512A502E0490704D511A5012401E00A
:1002A000AFF3008000210A2206F1240709E0B0FB29
:1002B000F2FCB0FBF2F302FB1C003030785418461D
:1002C000491C0028F3D123462A463046BDE8F041B8
:1002D00000F029B8000000002D0000002B000000F5
:1002E000200000000B4910B5A1F17C020A4CC2E9C4
:1002F0003712372106E000EB104342F82130074B5C
:1003000000FB03400B1EA1F10101F4DC10BD012034
:10031000E8E70000C8000020E119D666CD0D010015
:100320007047704770472DE9F0470D469946924651
:10033000044600F124080168880604D5E06921F02C
:100340001001216000E00120A84201DD471B00E010
:100350000027A1697A1902EB0900081AA061207828
:10036000C00602D42046AFF30080002608E0D4E99E
:1003700001211AF806009047206A401C761C206272
:100380004E45F4DB2078C0060AD52046AFF3008046
:1003900006E0D4E9012130209047206A401C206209
:1003A000381EA7F10107F4DC07E0D4E9012118F8B1
:1003B00005009047206A401C2062281EA5F1010517
:1003C000F3DC2046AFF300802078000602D502203F
:1003D000BDE8F0870120FBE701694A1C026108784B
:1003E000704700B58FB0CDE9013100210591054975
:1003F0007944CDE9031011466846FFF703FF0FB0BB
:1004000000BD0000E5FFFFFF0A6802F8010B0A606B
:100410007047754600F02CF8AE4605006946534615
:1004200020F00700854618B020B5FFF7C5FEBDE8EF
:1004300020404FF000064FF000074FF000084FF04B
:10044000000B21F00701AC46ACE8C009ACE8C009DC
:10045000ACE8C009ACE8C0098D46704710B5044649
:10046000AFF300802046BDE81040FFF777BE0000E4
:1004700000487047300100207047000001491820F3
:10048000ABBEFEE7260002008148C06940F0307034
:100490007F49C8617F48406820F020007D4948605E
:1004A0000846806820F4406088600846C06840F0D4
:1004B0002000C8600846006920F020000861084656
:1004C000006920F4001008610846406920F020000F
:1004D00048610846406920F4001048610846806978
:1004E00020F4406088610846806940F4806088613B
:1004F0000846C06920F02000C8610846406820F026
:10050000400048600846806820F4405088600846F3
:10051000C06840F04000C8600846006920F0400014
:1005200008610846006920F48000086108464069B7
:1005300020F0400048610846406920F4800048618E
:100540000846806920F4405088610846806940F47C
:10055000805088610846C06920F04000C8614E485C
:10056000406820F002004C4948600846806820F04E
:100570000C0088600846C06840F00200C860084669
:10058000006920F0020008610846006920F400308C
:1005900008610846406920F0020048610846406949
:1005A00020F4003048610846806920F00C00886122
:1005B0000846806940F0040088610846C06920F060
:1005C0000200C8610846406820F0080048600846FC
:1005D000806820F0C00088600846C06840F00800CD
:1005E000C8600846006920F00800086108460069F4
:1005F00020F4002008610846406920F008004861A6
:100600000846406920F4002048610846806920F0CF
:10061000C00088610846806940F040008861084653
:10062000C06920F00800C8611C48406820F0040040
:100630001A4948600846806820F030008860084603
:10064000C06840F00400C8600846006920F004005B
:1006500008610846006920F4802008610846406966
:1006600020F0040048610846406920F48020486179
:100670000846806920F0300088610846806940F0B3
:10068000100088610846C06920F00400C861704706
:100690000000024000000B4000800C4000800B4036
:1006A00070B505460E463146284600F0C3FB0021D2
:1006B000284600F04BFB00240CE000BF284600F069
:1006C000AFFA00F080000028F8D10021284600F0A1
:1006D00003FC641C402CF0DB70BD10B5002404E06A
:1006E000E1B20120FFF7DCFF641C082CF8DB0024DA
:1006F00004E0E1B20220FFF7D3FF641C082CF8DB12
:1007000010BD10B5044621460120FFF7C9FF214660
:100710000220FFF7C5FF10BD60B90D49496841F0DF
:100720003F010B4A51600B49496841F00C01094AED
:1007300051600BE00649496821F03F01044A5160CD
:100740000449496821F00C01024A516070470000D9
:1007500000800A4000800E4010B50446012C06D1EE
:100760002148006840F080001F49086005E01E48ED
:10077000006840F480701C4908601C48006820F044
:1007800001001A4908601848006820F48060164982
:10079000086017490968174AB1FBF2F000E0401EF3
:1007A0000028FCD1FFF7B8FF3F2000F021FB1049E3
:1007B0000968104AB1FBF2F000E0401E0028FCD1AD
:1007C0000A48006840F002000849086008490968C2
:1007D000084AB1FBF2F000E0401E0028FCD12046A0
:1007E00000F07CFA10BD000000000B4000800B40C0
:1007F0003000002000093D0008B52B48C0692B4996
:1008000008432949C86100F05BF82948006820F4D2
:100810000070274908602749096801EB8101264AD1
:10082000B1FBF2F000E0401E0028FCD12048006837
:1008300040F400701E4908601E4909681E4AB1FB59
:10084000F2F000E0401E0028FCD100BF012000F0C3
:10085000E7F900F0900030B1022000F0E1F900F07B
:1008600090000028F2D100BF012000F0D9F900F07B
:1008700080000028F8D10120FFF76EFF00BF0220A2
:1008800000F0CEF900F080000028F8D10220FFF738
:1008900063FFFFF722FF022015230022114600907C
:1008A000064800F0ADF808BD000002400000E0205E
:1008B00000000B403000002000093D00C81F000868
:1008C0004A48406820F03F004849486008460069AF
:1008D00020F03F1008610846C06840F03F00C86043
:1008E000084680686FF30B0088600846406920F076
:1008F0003F1048610846806940F6FF7108433B4954
:1009000088610846C06920F03F00C86138484068E7
:1009100020F00C00364948600846006920F00C10B1
:1009200008610846C06840F00C00C860084680684E
:1009300020F0F00088600846406920F00C10486103
:100940000846806940F0F00088610846C06920F0E0
:100950000C00C8612748406840F4F06025494860B1
:100960000846006924490840224908610846C068D1
:1009700040F4F060C8600846806820F47F1088600A
:10098000084640691C4908401A4948610846806980
:1009900040F47F1088610846C06920F4F060C861A7
:1009A0001648406840F00300144948600846006952
:1009B00020F0031008610846C06840F00300C860DA
:1009C0000846806820F00F0088600846406920F0E3
:1009D000031048610846806940F00F0088610846AE
:1009E000C06920F00300C8617047000000800A4021
:1009F00000800E4000000B407FF87FF800800B4025
:100A00002DE9FF4F82B08046894692460020009033
:100A100057466BE04E4663E00A2E32D00B2096FB21
:100A2000F0F0401C00F0FF0B01970B2096FBF0F15B
:100A300000FB116000EB40004100ABF1010001EB55
:100A40004000401CC5B25846019900F0F3F9294610
:100A5000584600F07BF9002410E000BF584600F033
:100A6000DFF800F080000028F8D10098204418F842
:100A70000010584600F030FA601CC4B2062CECDBC3
:100A800028E0019700243D2522E02846E91705EBE0
:100A900091618911491C01F0FF0B5846019900F042
:100AA000C9F92946584600F051F900BF584600F0F0
:100AB000B7F800F080000028F8D10098204418F81A
:100AC0000010584600F008FA601CC4B2681CC5B299
:100AD000062CDADB0098801DC0B20090701CC6B2F4
:100AE00005984844B04297DC781CC7B20F98504430
:100AF000B8428FDC06B0BDE8F08F70B505460E46F3
:100B0000002409E0285D00B908E0285D324621464E
:100B100000F010F8601CC4B2152CF3DB00BF06E037
:100B200032462146202000F005F8601CC4B2152C86
:100B3000F6DB70BD2DE9F04F06460F469246202E9B
:100B40000ADBFF2E08DCA6F1200000EB40004FF688
:100B5000FF7101EA400901E04FF000090A2F32D08D
:100B60000B2097FBF0F0401C00F0FF08D3460B2051
:100B700097FBF0F100FB117000EB40004100A8F181
:100B8000010001EB4000401CC5B25946404600F050
:100B900051F92946404600F0D9F8002410E000BF82
:100BA000404600F03DF800F080000028F8D109EB45
:100BB00004001A4A115C404600F08EF9601CC4B271
:100BC000062CECDB28E0D34600243D2522E0284615
:100BD000E91705EB91618911491C01F0FF0859469D
:100BE000404600F027F92946404600F0AFF800BF24
:100BF000404600F015F800F080000028F8D109EB1D
:100C00000400064A115C404600F066F9601CC4B25C
:100C1000681CC5B2062CDADBBDE8F08F881A000824
:100C200030B50446012C06D12648006840F080000B
:100C30002449086005E02348006840F48070214999
:100C400008602148006820F001001F4908601D4825
:100C5000006840F480601B4908601C4909681C4A10
:100C6000B1FBF2F000E0401E0028FCD10120FFF7AC
:100C700053FD1548006840F002001349086013490D
:100C80000968134AB1FBF2F000E0401E0028FCD1D5
:100C90001048006800F03F000F490968C02202EACE
:100CA000011140EA010509490968094AB1FBF2F05E
:100CB00000E0401E0028FCD1204600F00FF8284636
:100CC00030BD000000000B4000800B4030000020D1
:100CD00000093D0000800A4000800E4000B5034638
:100CE0001648006820F00200144908601449096899
:100CF000144AB1FBF2F000E0401E0028FCD10F487E
:100D0000006820F001000D4908600F48006820F4D9
:100D100080600D4908600120FFF7FEFC012B06D121
:100D20000948006820F080000749086005E006488F
:100D3000006820F480700449086000BD00800B400A
:100D40003000002000093D0000000B4030B5044693
:100D50000D46012C06D12248006840F08000204951
:100D6000086005E01E48006840F480701C49086077
:100D70001C48006820F001001A4908601848006803
:100D800020F480601649086017490968174AB1FBCA
:100D9000F2F000E0401E0028FCD1FFF7BDFC45F05A
:100DA000400000F025F810490968104AB1FBF2F044
:100DB00000E0401E0028FCD10A48006840F0020014
:100DC0000849086008490968084AB1FBF2F000E0E8
:100DD000401E0028FCD12046FFF780FF30BD0000F8
:100DE00000000B4000800B403000002000093D0057
:100DF0000E4909684FF6C07211400C4A1160114645
:100E0000096800F03F021143084A11600849096867
:100E10004FF6F3721140064A1160114609680C2220
:100E200002EA20121143024A1160704700800A4012
:100E300000800E4030B504460D46012C06D12248F4
:100E4000006840F080002049086005E01E48006806
:100E500040F480701C4908601C48006820F00100C4
:100E60001A4908601848006820F480601649086034
:100E700017490968174AB1FBF2F000E0401E00284C
:100E8000FCD1FFF749FC45F0B800FFF7B1FF10496E
:100E90000968104AB1FBF2F000E0401E0028FCD1C6
:100EA0000A48006840F002000849086008490968DB
:100EB000084AB1FBF2F000E0401E0028FCD12046B9
:100EC000FFF70CFF30BD000000000B4000800B401E
:100ED0003000002000093D0030B504460D46012CCD
:100EE00006D12148006840F080001F49086005E0F5
:100EF0001D48006840F480701B4908601B4800686A
:100F000040F00100194908601748006820F480602B
:100F10001549086016490968164AB1FBF2F000E06D
:100F2000401E0028FCD1FFF7F7FB2846FFF760FFC3
:100F30000F4909680F4AB1FBF2F000E0401E00289B
:100F4000FCD10A48006840F00200084908600849DE
:100F50000968084AB1FBF2F000E0401E0028FCD10D
:100F60002046FFF7BBFE30BD00000B4000800B4069
:100F70003000002000093D0030B5204CE46804F04A
:100F80000204022C01D11E4800E01D481B4CE468FD
:100F900004F0010404B140080146184CE46804F070
:100FA0000404042C05D1154C6468C4F30324631CA9
:100FB0005943124CE468C4F3012424B1012C06D037
:100FC000022C13D10DE00E4C0E4D2C6013E00B4C97
:100FD000E468C4F30314641CB1FBF4F2094C22600E
:100FE00009E04FF40044074D2C6004E049F640440A
:100FF000044D2C6000BF00BF30BD00000000024067
:1010000000127A003000002000B50D480D49C8617B
:101010000846C0680020C860084640680020486054
:101020000846806800208860084600690020086142
:101030000846406900204861FFF79EFF00BD0000A0
:10104000100000080000024000B5002008490860B8
:1010500008490860084908600849086008490860AC
:10106000084908600849086000F0C2FB00BD0000A4
:101070000000002004000020080000200C000020D8
:1010800010000020140000201800002010B50446B5
:101090002148006800F0020058B90121204600F004
:1010A00035FB00BF1C48006800F002000028F9D0A2
:1010B00031E01A48006800F0200058B900212046AD
:1010C00000F024FB00BF1548006800F02000002855
:1010D000F9D020E01148006800F0400058B9032121
:1010E000204600F013FB00BF0C48006800F04000F1
:1010F0000028F9D00FE00848006800F0080050B957
:101100000221204600F002FB00BF0348006800F007
:1011100008000028F9D010BD00800C4000000B40F2
:10112000024800E0401E0028FCD1704720A10700C3
:1011300010B5044694E8070000F04AFC10BD70B5F5
:101140000446002510E005EB450304EB83039A6891
:1011500005EB450304EB8303596805EB450354F89D
:10116000230000F035FC6D1CD4F8B401A842EADC81
:1011700070BD70B505460C46012639E0FEF7F4FF58
:10118000062190FBF1F201FB12002060FEF7ECFF5C
:10119000062190FBF1F201FB12006060FEF7E4FF14
:1011A000062190FBF1F201FB1200A0600026002056
:1011B00019E000EB400155F821102268914211D14D
:1011C00000EB400105EB810149686268914209D159
:1011D00000EB400105EB81018968A268914201D1D1
:1011E000012604E0401CD5F8B4118142E1DC00BFC7
:1011F000012EC3D070BD10B50446FEF7B5FF062121
:1012000090FBF1F201FB12002060FEF7ADFF06211A
:1012100090FBF1F201FB12006060FEF7A5FF0621D2
:1012200090FBF1F201FB1200A060C4F8B041012074
:10123000C4F8B401052084F8B80110BD00F0B2F97B
:10124000FFF702FFFFF720F9FFF7D6FA0321204846
:101250000068FFF752FC3AE01E48006800F0040006
:1012600068B91D480078012809D100201A49087082
:1012700000BF1848006800F004000028F9D01648A4
:10128000007820BB0320FFF73CFA0520FFF739FA6E
:101290000620FFF736FA00F02DF910490860032107
:1012A0000B480068FFF729FC0C480068401C70B12F
:1012B0000A480BA102680F48FEF790FF05210E486F
:1012C0000068FFF71AFC06210A48FFF716FCC3E77F
:1012D0002000002000800B402C0000201C0000207B
:1012E00020202020202020202020202020202025F9
:1012F000640000003400002024000020F0B587B016
:1013000004460D461646002004900590069094F879
:10131000B801062819D2DFE800F003060A110D14FF
:101320000120069011E04FF0FF3006900DE0012003
:1013300005900AE04FF0FF30059006E00120049090
:1013400003E04FF0FF30049000BF00BFD4F8B401B9
:10135000401E00EB400004EB8002D2E900109268CE
:10136000CDE902020191D4F8B411481E0BE000EB64
:10137000400104EB8102411E01EB410104EB8107B6
:101380008ACF8AC2401E0028F1DC04F5D874206898
:10139000006804990844216808602068406805993D
:1013A00008442168486020688068069908442168DC
:1013B00088602068A4F5D8740068002818DBD4F889
:1013C000B0010068062813DAD4F8B001406800289C
:1013D0000EDBD4F8B0014068062809DAD4F8B00171
:1013E0008068002804DBD4F8B0018068062802DB9E
:1013F000012007B0F0BD01211FE0D4F8B001006862
:1014000001EB410254F82220904215D1D4F8B001EA
:10141000406801EB410204EB8202526890420BD11A
:10142000D4F8B001806801EB410204EB82029268BB
:10143000904201D10120DCE7491CD4F8B401884274
:10144000DBDCD4F8B00100682968884238D1D4F8D0
:10145000B00140686968884232D1D4F8B001806830
:10146000A96888422CD1D4F8B40100EB400004EB09
:10147000800001A90EC90EC0D4F8B401401CC4F804
:10148000B40129462046FFF774FE2846FFF750FEB8
:101490003068401C30600520FFF733F90620FFF765
:1014A00030F90DA111483268FEF798FE0521104869
:1014B0000068FFF722FB06210C48FFF71EFB09E03E
:1014C00001A807C800F028FA039AD4F8B03103CB7A
:1014D00000F07EFA00208CE7202020202020202011
:1014E000202020202020202564000000340000203F
:1014F0002800002000B5F3B0FFF7A6FD04A8FFF711
:101500007AFE01A904A8FFF734FE04A8FFF717FE2E
:1015100001A8FFF70DFE012000901AA11E48009AB5
:10152000FEF75CFE05211D480068FFF7E6FA06217C
:101530001948FFF7E2FA1EE0FFF7F2FD04A8FFF7F3
:10154000A5FDFFF7EDFD04A8FFF7A0FDFFF7E8FDFF
:1015500004A8FFF79BFD6A4601A904A8FFF7CEFE89
:101560000F49087008460078012804D1FFF76CFD88
:10157000009873B000BD0A4800780028DCD04FF016
:10158000FF30F6E7202020202020202020202020CF
:1015900020202025640000003400002028000020C6
:1015A0002C0000204E48C06940F480004C49C861BE
:1015B0004C48406840F010004A49486008460069BD
:1015C00020F0100008610846006920F480100861CE
:1015D0000846C06840F01000C8600846806820F4E3
:1015E000407088600846406920F010004861084655
:1015F000406920F4801048610846806920F44070FA
:1016000088610846806940F4407088610846C06976
:1016100020F01000C8610846406840F004004860AF
:101620000846006920F0040008610846006920F4BB
:10163000802008610846C06840F00400C860084681
:10164000806820F0300088600846406920F004007F
:1016500048610846406920F4802048610846806956
:1016600020F0300088610846806940F030008861D1
:101670000846C06920F00400C8610846406840F090
:10168000010048600846006920F001000861084632
:10169000006920F4803008610846C06840F001000D
:1016A000C8600846806820F00300886008464069EA
:1016B00020F0010048610846406920F4803048610C
:1016C0000846806920F0030088610846806940F080
:1016D000030088610846C06920F00100C8617047B6
:1016E0000000024000000B4086B00146012000903F
:1016F0000220019004200290082003901020049002
:10170000202005905DF8210006B0704731B1012915
:101710001BD0022930D0032967D14AE090F8B821C4
:10172000062A10D2DFE802F00B0A0306040500BF08
:1017300000BF00BF002280F8B82104E000BF0522EE
:1017400080F8B82100BF00BF4FE090F8B821062A0A
:1017500010D2DFE802F00A0B0306040500BF00BF49
:1017600000BF012280F8B82104E000BF032280F806
:10177000B82100BF00BF38E090F8B821062A16D281
:10178000DFE802F0110803070C10032280F8B821EB
:101790000DE000BF042280F8B82108E0052280F89F
:1017A000B82104E000BF022280F8B82100BF00BFCA
:1017B0001BE090F8B821062A16D2DFE802F01108E3
:1017C00003070C10052280F8B8210DE000BF0222AB
:1017D00080F8B82108E0032280F8B82104E000BFB7
:1017E000042280F8B82100BF00BF00BF704700008E
:1017F00000B51F48006820F004001D4908601D481E
:10180000037801220421002000F042F81A480378EE
:1018100001220421002000F03BF81848037801223F
:101820000421002000F034F8154803780122042137
:10183000002000F02DF81348037801220421002035
:1018400000F026F81048037801220421002000F05F
:101850001FF80E48037801220421002000F018F838
:101860000348006840F004000149086000BD000022
:1018700000000B4018000020140000201000002081
:101880000C000020080000200400002000000020C0
:1018900070B50C46002139E09AB901258D401D40F4
:1018A0003DB11C4D2D68012686403543194E3560EB
:1018B0001CE0184D2D6801268640B543154E356055
:1018C00014E0C1F107060125B5401D403DB1114DA1
:1018D0002E68012585402E430E4D2E6006E00D4DED
:1018E0002D6801268640B5430A4E3560094D2D68A6
:1018F0000126A6403543074E356035462D68012642
:10190000A640B543034E35604D1CE9B20829C3DB40
:1019100070BD000000000B4070B504460D46164631
:10192000062C3AD2DFE804F0030C151E27302846B7
:10193000FFF7DAFE1F490968081A1E4908602CE003
:101940002846FFF7D1FE1C490968081A1A490860A1
:1019500023E02846FFF7C8FE18490968081A174906
:1019600008601AE02846FFF7BFFE15490968081A03
:101970001349086011E02846FFF7B6FE11490968CF
:10198000081A1049086008E02846FFF7ADFE0E4926
:101990000968081A0C49086000BF00BF3046FFF70D
:1019A000A3FE0A490968081A08490860FFF720FFE2
:1019B00070BD00000000002004000020080000208E
:1019C0000C0000201000002014000020180000204F
:1019D00070B504460D461646062C3AD2DFE804F0F0
:1019E000030C151E27302846FFF77EFE1F490968A5
:1019F00008441E4908602CE02846FFF775FE1C4984
:101A0000096808441A49086023E02846FFF76CFE7D
:101A1000184909680844174908601AE02846FFF782
:101A200063FE1549096808441349086011E0284617
:101A3000FFF75AFE1149096808441049086008E098
:101A40002846FFF751FE0E49096808440C49086012
:101A500000BF00BF3046FFF747FE0A490968084447
:101A600008490860FFF7C4FE70BD000000000020B8
:101A700004000020080000200C00002010000020BE
:101A800014000020180000200000000000000000EA
:101A90005F000000000700070000147F147F14009F
:101AA000242A7F2A12002313086462003649552233
:101AB0005000000007000000001C2241000000410F
:101AC000221C000014083E08140008083E08080004
:101AD000005030000000080808080800006060009E
:101AE00000002010080402003E5149453E0000421B
:101AF0007F4000004261514946002141454B310081
:101B00001814127F10002745454539003C4A4949C1
:101B1000300001710905030036494949360006497C
:101B200049291E000036360000000056360000002D
:101B3000081422410000141414141400004122144B
:101B400008000201510906003E415D551E007E114C
:101B500011117E007F49494936003E414141220032
:101B60007F4141221C007F49494941007F09090901
:101B700001003E4149497A007F0808087F00004182
:101B80007F4100002040413F01007F0814224100B6
:101B90007F40404040007F020C027F007F0408101D
:101BA0007F003E4141413E007F09090906003E4158
:101BB00051215F007F091929460026494949320011
:101BC00001017F0101003F4040403F001F204020B5
:101BD0001F003F4038403F006314081463000708AB
:101BE00070080700615149454300007F41410000F2
:101BF0000204081020000041417F0000040201029D
:101C00000400404040404000000001020000205419
:101C1000545478007F4844443800384444444400D5
:101C2000384444487F00385454541800087E090151
:101C3000060018A4A4A47C007F08040478000044D3
:101C40007D4000002040443D00007F1028440000FB
:101C500000417F4000007C04180478007C080404E4
:101C60007800384444443800FC2424241800182404
:101C70002428FC007C080404180008545454200054
:101C8000043F444030003C4040207C001C20402069
:101C90001C003C4030403C004428102844001CA05C
:101CA000A0A07C004464544C44000008364100006D
:101CB00000007F00000000413608000010081010EE
:101CC0000800000000000000007E43437E00007E0C
:101CD00063637E00007E73737E00007E7B7B7E00EC
:101CE000007E7F7F7E0040004000400004047F04AF
:101CF000040014147F141400143E554122001C22C9
:101D00007F221400487E4949420000081422000046
:101D100004027F02040010207F201000081C2A0803
:101D2000080008082A1C08007F4171311F00025575
:101D30007D050200101E3F1E1000E0E07F020C0037
:101D4000E4E87F224C0000183C3C18000808080812
:101D500008000808080808007F4141417F00080882
:101D60002A08080010207F0101000000221408004A
:101D700014341C1614002412242412002A2A2A2A9D
:101D80002A0000444A51000000514A44000007481C
:101D90004B483F000C5152513C002040413F010054
:101DA000221C141C22007E020202030000007700A5
:101DB0000000204A552902007C55545544003E63DA
:101DC0005D6B3E003E494941220008142A1422005E
:101DD000040404041C000000000000003E41754B98
:101DE0003E0000017C010000060909060000444491
:101DF0005F44440000417F41000000447D400000FA
:101E00007C0404060000FE20201E200006097F013D
:101E10007F0000000C0C00003855545518007F045A
:101E200008107F0038545444280022142A14080053
:101E30002040443D0000264949493200085454548A
:101E400020000002780200007E1111117E007F4503
:101E5000454539007F49494936007F0101010300AA
:101E6000603E213F60007F494949410077087F0873
:101E700077004149494936007F1008047F007E20E1
:101E800013087E007F0814224100403C02017F00BD
:101E90007F020C027F007F0808087F003E4141411D
:101EA0003E007F0101017F007F09090906003E41D4
:101EB0004141220001017F010100074848483F00DD
:101EC0001C227F221C006314081463007F40407FA3
:101ED000C0000F1010107F007F407F407F007F40C8
:101EE0007F40FF00017F444438007F4438007F007A
:101EF0007F4444380000224149493E007F083E416A
:101F00003E00462919097F002054545478003C4A69
:101F10004A4930003E494D4A30007C04040C000020
:101F2000C078447CC0003854545418006C107C10A5
:101F30006C004454542800007C2010087C007C2154
:101F400012097C007C10284400007008047C00000A
:101F50007C0810087C007C1010107C00384444443D
:101F600038007C0404047C00FC2424241800384439
:101F70004444440004047C0404001CA0A0A07C0091
:101F80003048FC4830004428102844007C40407C05
:101F9000C0000C10107C00007C407C407C007C4029
:101FA0007C40FC00047C505020007C5020007C00D1
:101FB0007C50502000002844545438007C10384491
:101FC0003800085434147C0040407C06721AEADA67
:101FD000BADAEA9A7A067C4040000000000000006D
:101FE000C0202020C000C0202020C0000000000031
:101FF0000000008040804000E0202020E000E00061
:1020000080402000E0008040200000000000000030
:10201000E0408040E0008000000080000000808000
:102020000000008080800000800000008000000030
:102030008080000080808080000040804080000020
:102040000000000000000505356045555555555503
:1020500055554560350505000000000000000F02E1
:1020600002020F0007080808070000000000000037
:102070000102050204000F0000000F000F0102041E
:1020800008000F01020408000000000000000F001B
:1020900001000F000F0402010F000E01000F0000ED
:1020A000040A0A0A0F000F0202020F00180F080F9D
:1020B00018001F04040403000402050201000000CC
:1020C0000000000020202020202053636F72653A1A
:1020D00000000000202020204C6173742073636F87
:1020E00072653A00202050726573732053454C206E
:1020F000746F207374617274000000001C2100086A
:102100000000002034000000FC00000850210008FE
:10211000340000205C0700001801000800000000E7
:1021200000000000000000000000000000000000AF
:102130000000000000000000FFFFFFFFE420000897
:10214000D4200008C42000080100000000127A001A
:040000050800019D51
:00000001FF
