:020000040800F2
:10000000C01E0020ED010008F5010008F7010008FE
:10001000F9010008FB010008FD01000800000000D4
:100020000000000000000000000000002D02000899
:1000300001020008000000008D0200089D02000877
:10004000070200080702000807020008000000007D
:10005000000000000702000807020008070200086D
:10006000070200080000000007020008070200085D
:10007000070200080000000007020008070200084D
:10008000070200080702000800000000070200083D
:10009000070200080000000000000000000000004F
:1000A000000000000000000000000000070200083F
:1000B00007020008070200080702000807020008FC
:1000C00000F002F800F064F80AA090E8000C824406
:1000D0008344AAF10107DA4501D100F059F8AFF2E3
:1000E000090EBAE80F0013F0010F18BFFB1A43F016
:1000F00001031847C4420000E44200000A444FF0E4
:10010000000C10F8013B13F0070408BF10F8014B76
:100110001D1108BF10F8015B641E05D010F8016BBB
:10012000641E01F8016BF9D113F0080F1EBF10F81F
:10013000014BAD1C0C1B09D16D1E58BF01F801CB42
:10014000FAD505E014F8016B01F8016B6D1EF9D5C5
:100150009142D6D3704700000023002400250026DA
:10016000103A28BF78C1FBD8520728BF30C148BF1A
:100170000B607047642900F01581732900F0A58297
:10018000002070471FB500F05EF91FBD10B510BD0F
:1001900000F09FFA114603B402F0A6FD03BCFFF77E
:1001A000F1FF02F03FFE00F0B9FA03B4FFF7EEFFF3
:1001B00003BC00F0C3FA00000B49D1F800C04A6844
:1001C0005CF8043B1068184442F8040B8C4528BFC7
:1001D000A1F1DC0C8A4228BFA1F1DC02C1F800C009
:1001E0004A6020F0004070475818002009488047B6
:1001F00009480047FEE7FEE7FEE7FEE7FEE7FEE709
:10020000FEE7FEE7FEE7FEE704480549054A064B20
:1002100070470000892A0008C1000008C0180020AB
:10022000C01E0020C01A0020C01A0020EFF3098071
:10023000816911F8021CD9B901B590E80F10E047A7
:10024000BDE800508CE80300184B93E8060091428B
:1002500008BF704719B12CE9F00FC1F838C01A6017
:10026000906BB0E8F00F80F309886FF0020E7047D2
:1002700010B50F4A1368994206D852F821400FC8AA
:10028000A047EFF30984206010BD000010B500F016
:100290007BFCBDE81040EFF3098CD5E710B501F009
:1002A00037F8BDE81040EFF3098CCDE73415002096
:1002B0000C4300080FB41CB50C0007AA009001D035
:1002C0002044401E074B7B4469460190069800F08D
:1002D000CAF9002C03D06946002000F0D7F91CBCF5
:1002E0005DF814FBCD0300002DE9F0410E460446F5
:1002F000002020622046E168884730B3252805D0D9
:10030000D4E901219047206A401CF2E7E1682046C9
:1003100000278847050018D0A5F14100192802D808
:1003200020354FF400673246294620462760FFF704
:1003300021FF40B1012804D0F61D26F0070608363B
:10034000D8E7361DD6E72846DAE7206ABDE8F0810F
:1003500070B50C460546012A05D02878800600D5E0
:10036000EA69002302E0012305E05B1C934202D20C
:10037000E05C0028F9D1A869E618C01AA861286ACB
:10038000184428622846AFF3008004E0D5E9012133
:1003900014F8010B9047B442F8D32846AFF300801D
:1003A00070BD00002DE9F041064600241068752953
:1003B000314616A510D0AFF30080002802DA404283
:1003C00013A507E031688A0701D512A502E04907A5
:1003D00004D511A5012401E0AFF3008000210A2219
:1003E00006F1240709E0B0FBF2FCB0FBF2F302FBDC
:1003F0001C00303078541846491C0028F3D123469D
:100400002A463046BDE8F04100F0CFB800000000B9
:100410002D0000002B000000200000000B4910B54B
:10042000A1F17C020A4CC2E93712372106E000EB49
:10043000104342F82130074B00FB03400B1EA1F193
:100440000101F4DC10BD0120E8E70000F8170020EE
:10045000E119D666CD0D0100032A40F2308010F07C
:10046000030C00F0158011F8013BBCF1020F62444F
:1004700098BF11F801CB00F8013B38BF11F8013BE0
:10048000A2F1040298BF00F801CB38BF00F8013B8D
:1004900011F0030300F02580083AC0F0088051F8FD
:1004A000043B083A51F804CBA0E80810F5E7121D08
:1004B0005CBF51F8043B40F8043BAFF30080D20727
:1004C00024BF11F8013B11F801CB48BF11F8012BF3
:1004D00024BF00F8013B00F801CB48BF00F8012B16
:1004E000704710B5203AC0F00B80B1E81850203AA0
:1004F000A0E81850B1E81850A0E81850BFF4F5AFC4
:100500005FEA027C24BFB1E81850A0E8185044BF4D
:1005100018C918C0BDE810405FEA827C24BF51F8BA
:10052000043B40F8043B08BF7047D20728BF31F8AE
:10053000023B48BF11F8012B28BF20F8023B48BFFF
:1005400000F8012B704702F0FF0343EA032242EA5E
:10055000024200F002B84FF0000200B51346944684
:100560009646203922BFA0E80C50A0E80C50B1F10B
:100570002001BFF4F7AF090728BFA0E80C5048BF1F
:100580000CC05DF804EB890028BF40F8042B08BFBD
:10059000704748BF20F8022B11F0804F18BF00F8B9
:1005A000012B70477047704770472DE9F0470D46A3
:1005B00099469246044600F124080168880604D54D
:1005C000E06921F01001216000E00120A84201DD76
:1005D000471B00E00027A1697A1902EB0900081AFD
:1005E000A0612078C00602D42046AFF30080002628
:1005F00008E0D4E901211AF806009047206A401C5F
:10060000761C20624E45F4DB2078C0060AD52046D1
:10061000AFF3008006E0D4E9012130209047206A42
:10062000401C2062381EA7F10107F4DC07E0D4E982
:10063000012118F805009047206A401C2062281EFE
:10064000A5F10105F3DC2046AFF300802078000619
:1006500002D50220BDE8F0870120FBE701694A1CB2
:1006600002610878704700B58FB0CDE901310021F3
:10067000059105497944CDE9031011466846FFF715
:1006800033FE0FB000BD0000E5FFFFFF0A6802F86F
:10069000010B0A607047D1E900239A4202D2531C31
:1006A0000B601070704710B5436913B1AFF3008051
:1006B00001E0FFF74DFE012010BD127800F124018A
:1006C0000A7000224A700122EDE711684FF0FF32F4
:1006D000E9E7754600F02CF8AE460500694653463A
:1006E00020F00700854618B020B5FFF78DFDBDE866
:1006F00020404FF000064FF000074FF000084FF089
:10070000000B21F00701AC46ACE8C009ACE8C00919
:10071000ACE8C009ACE8C0098D46704710B5044686
:10072000AFF300802046BDE81040FFF73EBD00005B
:1007300000487047601800207047000001491820E9
:10074000ABBEFEE726000200EFF3058129B9EFF307
:10075000108111B9EFF3118111B16FF005007047ED
:1007600041F2814CC0F6000C00DF7047EFF30580CA
:1007700028B9EFF3108010B9EFF3118010B14FF0EA
:10078000FF307047EFF3148010F0010F01BF41F20A
:100790001850C2F20000007A704741F2954CC0F642
:1007A000000C00DF70470000EFF3058028B9EFF37D
:1007B000108010B9EFF3118010B16FF00500704791
:1007C00041F2A14CC0F6000CEFF3148212F0020FBC
:1007D00006D1EFF30882203A22F0070282F309885B
:1007E00000DF7047EFF3058028B9EFF3108010B9F0
:1007F000EFF3118010B16FF00500704741F24D6CBE
:10080000C0F6000CEFF3148212F0020F06D1EFF3E2
:100810000882203A22F0070282F3098800DF70473D
:100820002DE9F0410546EFF3058090460E4628B9C4
:10083000EFF3108010B9EFF3118048B36FF00307A6
:10084000F5B1EBB9E6B12878082819D16878D0B1AC
:1008500005F10C0000F0F6F80446A4B16A6A04F150
:100860000C003146FFF7F8FD07200027207001201B
:1008700060702046A77084F80380A56000F0D8F966
:100880003846BDE8F0816FF002073846BDE8F081D8
:1008900041F2E56C284631464246C0F6000C00DFC6
:1008A000BDE8F081EFF305822AB9EFF3108212B9A7
:1008B000EFF3118212B16FF00500704741F2FD7C39
:1008C000C0F6000C00DF7047EFF3058129B9EFF3A4
:1008D000108111B9EFF3118111B16FF0050070476C
:1008E00041F69D0CC0F6000C00DF7047EFF3058168
:1008F00029B9EFF3108111B9EFF3118109B100208B
:10090000704741F6751CC0F6000CEFF3148212F02C
:10091000020F06D1EFF30882203A22F0070282F399
:10092000098800DF70470000EFF3058129B9EFF374
:10093000108111B9EFF3118111B16FF0050070470B
:1009400041F6E91CC0F6000C00DF7047B0B5002886
:100950004FF0000318BF00292DD0032A2BD886465C
:100960000F315EF8083F21F0070C00BFDEF80440AD
:100970001946A1EB0E0524F00303ED1A654506D2D6
:100980000B688E46002BF1D100231846B0BD456898
:10099000002C654445604CEA020008D043F80E1074
:1009A00003EB0E014860CEF800108E4601E0CEF851
:1009B00004000EF108031846B0BD000000284FF0F7
:1009C000000218BF00291DD0A1F1080C00F1080297
:1009D000002100BF1346634506D01A681946002A55
:1009E000F8D1002210467047DCF804304268002934
:1009F00023F00303A2EB0302426005D0DCF8000001
:100A0000012208601046704700200122CCF8040043
:100A100010467047002298B110F0070F10D1182926
:100A20000ED311F007030BD1016010220144426084
:100A3000A1F108028260002241F8082CC260012264
:100A40001046704710B3B0B5014651F8042B51E879
:100A5000003F9A4202D8BFF32F8F04E05C1C41E8AC
:100A6000004505B1F3E701688B42BDE8B0400DD207
:100A700000F1140151E8000F10B9BFF32F8F04E00B
:100A8000026841E8002303B1F4E770470020704793
:100A9000B0B5002826D0C2688A4223D802698A42AB
:100AA00020D9021D52E8003F13B9BFF32F8F04E095
:100AB0005C1E42E8004505B1F4E7002B04BF6FF06F
:100AC0000200B0BD143002680A60BFF35F8F50E8C7
:100AD000002F0B689B42F6D140E8001404B1F2E706
:100AE0000020B0BD6FF00300B0BD000084460020C0
:100AF000BCF1000F18BF00291FD0002A18BF002B1F
:100B00001BD080B54FF0000E02FB0130CCE9001E77
:100B1000CCE90223CCE90403481E09D000FB023CC7
:100B2000C1F101019818013118600346FAD16346FA
:100B30000120C3F800E0BDE8804070472DE9F04196
:100B40000446002C08BFBDE8F08100274FF00108E3
:100B500025466C69E87810F0080F11D02F76A86848
:100B600070B1284600F0BCF900210022064600F0D2
:100B70006FFBEE60F06AC5E90470F56285F81880D5
:100B8000002CE5D1BDE8F081F0B581B041F21854F8
:100B90004FF6FF76C2F2000404F15A05B4F858008B
:100BA000D5E85F1F11B9BFF32F8F04E04A1EC5E8D7
:100BB000532F03B1F4E7314234D004F15E0700BF94
:100BC000D7E85F1F4A1C904200D80022C7E8532F85
:100BD00003B1F5E788B2216E51F8200010B3017817
:100BE000013906290FD8DFE801F0040E060E080AC5
:100BF0000C00616E06E0A16E04E0E16E02E0216F80
:100C000000E0616F8847B4F85800D5E85F1F11B95C
:100C1000BFF32F8F04E04A1EC5E8532F03B1F4E75A
:100C20003142CDD1002001B0BDE8F04000F0ACB8B9
:100C300070B5014641F21850C2F20000B0F85820D9
:100C400000F15A03D3E85F4FA24202D8BFF32F8FBF
:100C500004E0651CC3E8565F06B1F3E7A3B2934214
:100C60001DD200F15C03D3E85F4F651CAA4200D897
:100C70000025C3E8565F06B1F5E7036EA2B243F85C
:100C80002210417A00291EBF0121C17270BD4EF6AB
:100C900004504FF08051CEF20000016070BD022080
:100CA000BDE8704002F0D6B94EF21000CEF200005E
:100CB000006870474EF210000721CEF2000001607C
:100CC0007047000044F2443041F21851C0F6000071
:100CD000C2F200014068C968B1FBF0F04EF21401A5
:100CE0000138CEF200010860002048604EF6235023
:100CF000FF21CEF2000001704FF0FF30704700007E
:100D000070B541F2185EC2F2000EDEF83410D1B3B5
:100D1000C8690138C86118BF70BD4FF0010C0EF1F1
:100D200024030022C86830B18C6884608C68002C71
:100D300018BFE060CA6081F801C01C4691F920002C
:100D4000DEF82C504DB11E462C4694F920508542B9
:100D500008DBA5682646002DF6D104F10800C1E99C
:100D6000022404E0C1E90246B16004F10C00016014
:100D7000096929B1C8690028D4D00020486100E081
:100D80000021CEF8341070BDB0B541F2185CC2F24B
:100D9000000CDCF81C50002D294618BF01219CF8DE
:100DA00008200028A2F10202B2FA82F24FEA52129F
:100DB00001EA020136D090F9203001291BD195F9C2
:100DC00020108B4217DD01226A700CF12402DCF83E
:100DD0002C3053B1144600BF1A4692F920308B4292
:100DE00070DD93681446002BF6D10021C5E902128C
:100DF00002F108016BE0012141700CF12401DCF8E3
:100E00002C2052B10C4600BF114691F920209A4285
:100E10002FDB8A680C46002AF6D10022C0E90221A5
:100E200008312AE0DCF82CE0BEF1000F704618BF54
:100E300001200840012821D195F920309EF9200099
:100E40009842D8BFB0BDDEF80C00C0B1DEF8081083
:100E50008160DEF80810002918BFC8600020012159
:100E6000CEF80C00DCF82C00697058B90CF12401A4
:100E700013E0C0E90214A0600C310860B0BD01208D
:100E8000687070460CF12402014691F920009842E6
:100E900009DD88680A460028F6D10020C5E902016C
:100EA00001F1080004E0C5E90212956001F10C00AF
:100EB000056002208EF80100CCF820E0BDE8B040CB
:100EC00000F032B9C5E90224A56002F10C010D6001
:100ED00002214170CCF82000BDE8B04000F024B9F8
:100EE00001468868002808BF70478268002A8A6027
:100EF00018BFD1600021C16070470000002908BF01
:100F0000704791F920C083684BB10246184690F9AA
:100F10002030634508DB83680246002BF6D10022AF
:100F2000C1E90220083003E0C1E9020291600C30FF
:100F300001607047C168002908BF704782688A60F5
:100F40008268002A18BFD1600021C160704700008C
:100F5000014603E0C968002908BF70470A78012AE2
:100F6000F8D0C2683AB1836893608368002B18BFD9
:100F7000DA600022C26090F920C08A6852B100BFD6
:100F8000134693F9202062450BDB9A681946002A24
:100F9000F6D100E00B460021C0E9021303F108017D
:100FA00004E0C0E90231886003F10C010860704779
:100FB000B0B54178332940F08C8090F82310426A14
:100FC00000F1280401F0010511F0020F11D105B361
:100FD00054E8001F01EA0203934203D0BFF32F8FAE
:100FE000002105E021EA020344E8003505B1EFE7FE
:100FF0001DE021682B4601EA0204A21A18BF012253
:10100000002D18BF0123134263D154EA05020ED10B
:101010005FE054E8001F114203D1BFF32F8F00217E
:1010200005E021EA020344E8003505B1F1E70029B3
:1010300008BFB0BD826B1162C2694169531C16D0F2
:1010400041F2185C0029C2F2000C03D1DCF8343004
:1010500083421ED10369002B1FBFDD692A44DA6178
:10106000596118BF416989B9CCF8343011E041F2B7
:1010700018520029C2F2000202D1936B834208D1B8
:101080000369002B1CBF5961416919B30B61002131
:10109000416141F2185301214170C2F2000390F9FD
:1010A000202003F12401DB6A4BB10C46194691F96B
:1010B0002030934208DB8B680C46002BF6D10022CF
:1010C000C0E90221083103E0C0E90214A0600C313C
:1010D0000860B0BD9363DCE701210028417008BFC0
:1010E000704741F2185290F920C0C2F20002D36A50
:1010F00002F124014BB10A46194691F920306345AB
:1011000008DB8B680A46002BF6D10022C0E90221D9
:10111000083103E0C0E9021290600C3108607047AA
:10112000806B20307047000041F21850C2F200007E
:10113000C169002908BF7047086B8A6B824207D9D2
:10114000006842F6A562CEF25A22904200D1704762
:10115000012001F07FBF00000221417041F21851CF
:10116000C2F200010862FFF7DFBF000010B541F2D4
:10117000185EC2F2000EDEF81C3023B39EF8082081
:10118000022A15D1DEF82C20EAB15870481C1CD078
:10119000DEF834404FF0000C4CB300222046C46906
:1011A000A1422FD3091B04690246002CF6D11FE08F
:1011B000D86840B1996881609968002918BFC860F3
:1011C0000020D86010BD002010BD0EF138040022B0
:1011D000214600BF10460A6802F11001002AF9D129
:1011E0004FF0FF31D9610021C3E9041005E0002070
:1011F0000EF13404D961C3E904C0002818BF00F11E
:1012000010040EE00EF13404002AD961C3E904028F
:1012100018BF02F11004236000F11404C269511ACE
:10122000C1612360DEF82C0048B181680029CEF846
:101230002C101CBF0EF12402CA600021C1600221E3
:101240004170CEF82000FFF76FFF012010BD0000B5
:1012500010B5836B41F2185CC2F2000C1962C369CD
:101260004469591C16D01CB9DCF83410814225D1D0
:10127000D0F810E0BEF1000F1FBFDEF81C101944BB
:10128000CEF81C10CEF8144018BF44698CB1C4F8D5
:1012900010E00BE01CB9DCF8381081420ED1036974
:1012A000002B1CBF5C61446934B1236100214161A2
:1012B00004E0CCF834E001E0CCF83830012A04BF77
:1012C000BDE81040FFF760BD41F2185201214170A6
:1012D000C2F2000290F920C0D36A02F1240153B196
:1012E0000A4600BF194691F92030634509DB8B6837
:1012F0000A46002BF6D10022C0E90221083108601D
:1013000010BDC0E902120C319060086010BD0000F1
:10131000B0B5FFF7C9FC41F21855C2F20005D5E996
:101320000401013041F10001C5E9040100F02CF88D
:10133000FFF7E6FC0020FFF727FDA96C19B32A6A26
:10134000286C90421CBFC5E91021B0BD696C11B179
:101350000139696417D1297A022914D1EC6A94B150
:1013600090F8200094F82010814218BFB0BD2046AC
:10137000FFF7E0FD286CFFF7AFFE2046FFF7ECFE1D
:101380002C64A86C6864B0BD2DE9F04141F2185599
:10139000C2F20005EC6C002C49D0206901382061B4
:1013A00045D14FF0000805F14C070126E068002206
:1013B000002300281CBFA1688160E864686D04F107
:1013C0001801FFF72DFA18B10320214601F042FE63
:1013D000E07801280ED1EB6C60696BB1002200BF90
:1013E00019460B6998420CD3C01ACB680A46002BE9
:1013F000F6D102E0667012E00021C4E90218206113
:1014000007E0C4E9022120610B69181A08618C60A9
:1014100011460029384618BF01F10C000460EC6C3D
:10142000002C08BFBDE8F08120690028BED0BDE8CF
:10143000F081000041F6B12CC0F6000C00DF00BFC7
:10144000FEE70000EFF305832BB9EFF3108313B928
:10145000EFF311830BB10020704741F6F53CC0F665
:10146000000CEFF3148313F0020F06D1EFF308839F
:10147000203B23F0070383F3098800DF7047000057
:10148000014629B180B51320FFF770FEBDE880400A
:101490000020704741F21850C2F20000007A7047F5
:1014A0002DE9F04141F21857C2F20007387A40B1F5
:1014B00001281CBF4FF0FF30BDE8F0810020BDE8DF
:1014C000F08107F10800A021FFF745F844F2443607
:1014D000C0F60006706D4828C0F0B480F06800289F
:1014E0001CBF318A002900F0AD803866A7F858107B
:1014F000B068D6E90B41B8642046FFF78BFA0028A4
:1015000018BFC7F88440D6E90541D6E907582046F8
:10151000FFF780FA0028D7F88410284618BF214624
:10152000B9674146FFF776FAD7F88410002818BF4C
:101530002946F967D6E909412046FFF76BFAD7F843
:101540008410002818BF2146746BC7F880104CB176
:101550002168D4E902232046FFF7C8FA002818BF03
:10156000C7F88840B46B4CB12168D4E90223204607
:10157000FFF7BCFA002818BFC7F88C40F46B4CB1D9
:101580002168D4E902232046FFF7B0FA002818BFEB
:10159000C7F89040346C4CB12168D4E9022320464E
:1015A000FFF7A4FA002818BFC7F89440746C4CB138
:1015B0002168D4E902232046FFF798FA002818BFD3
:1015C000C7F89840B46C4CB12168D4E90223204696
:1015D000FFF78CFA002818BFC7F89C40F46C4CB198
:1015E0002168D4E902232046FFF780FA002818BFBB
:1015F000C7F8A040346D4CB12168D4E902232046DD
:10160000FFF774FA002818BFC7F8A4404EF622501E
:10161000FF21CEF200000170017850F8162C81F005
:10162000FF01C2F30222B1FA81F1C1F120018A4225
:1016300028BF511CFE2202FA01F100F8031C012010
:1016400038723BE74FF0FF30BDE8F08110B541F252
:101650001854C2F20004207A01283FD1206B68B9E7
:1016600044F244300021C0F60000826D43F2750060
:10167000C0F6000000F0BEFA206378B304F1240045
:10168000FFF72EFC50B3FFF767FD44F24430C0F67D
:101690000000007810F0010F0CBF0320022080F33F
:1016A000148841F21450C2F200000068E060FFF7B5
:1016B00009FBA06100280BDB00F01F010122401193
:1016C00002FA01F14EF20012CEF2000242F82010AE
:1016D000FFF7F0FA02202072002010BD4FF0FF301B
:1016E00010BD00002DE9F04104461D4690460E460F
:1016F0006FF00307002C18BF002E5CD0207808285C
:1017000059D16078002859D0A068C8B140788328A2
:1017100016D12046FFF7E4FB0021012205460027F1
:10172000FFF796FD2846FFF7FBFC0546626A314647
:10173000A868FEF791FEE868E8B380F8008059E0F9
:1017400004F10C00FFF77EF907460FB3626A07F158
:101750000C003146FEF780FE072000213870012082
:101760007870B97087F80380204650F8303F53B343
:10177000002200BF1946CB78434528D24B680A4661
:10178000002BF7D1002204F12C03C7E9012123E04B
:10179000A5B141F21850C2F20000C1692046FFF71E
:1017A000ADFB93202946FFF7E1FCEFF309806FF0D2
:1017B0000107C0E902683846BDE8F0816FF0020712
:1017C0003846BDE8F081C7E90111E76208E0C7E9E2
:1017D000011201F10803114600291F6018BF081DFE
:1017E000076004F1280050E8001F4A1C40E800236D
:1017F00003B1F8E700273846BDE8F08170B504462C
:1018000041F218500D46C2F20000C669002E04BF16
:101810004FF0FF3070BD5CB32078042828D1607889
:10182000002804BF6FF0020070BD207E18B3E1787D
:1018300011F0010F02D0E268B24225D055B311F089
:10184000020F0AD0E06896F9201090F920208A4211
:10185000BCBF80F82010FFF77BFB20463146FFF726
:101860004DFB53202946FFF781FC6FF0010070BD4E
:101870006FF0030070BDE6600121F06A6061002036
:101880002061F462217670BDFF281FBF01302076F1
:10189000002070BD6FF0020070BD000010B504465E
:1018A0008CB3207804282ED16078002804BF6FF014
:1018B000020010BD00206070207E002840D06169C9
:1018C000E06800291CBF22690A61226902F1140341
:1018D000002A08BF00F12C031960E17811F0020F13
:1018E00028D0C26A90F821C001E000BF52696AB1F5
:1018F0009368002BFAD093F920304FFA8CF18B4289
:10190000C8BF9C46F2E76FF0030010BD90F820209E
:101910005FFA8CF18A420DD080F820C0FFF718FBE7
:1019200008E000BF2046FFF7DBFA6FF0020100225B
:10193000FFF78EFCA0680028F4D10020FFF724FAFE
:10194000A07810F0010F04BF002010BD41F2185123
:10195000C2F20001D1F8980020B12146FFF798F8B3
:10196000002010BDD1F884002146FFF727F80020A1
:1019700010BD0000B0B5014659B1D1E900548868E6
:1019800098B110F0030F2BD1CA6800211C2A25D36F
:1019900016E00024002541F21851C2F20001D1F8EE
:1019A000980028B1FFF74EF808E0C868C0B9F2E720
:1019B000D1F884001C210122FEF7C8FF80B101216B
:1019C000042202700122427081700021C4704560BF
:1019D0000176C0E90411C0E9021101460846B0BD14
:1019E00000210846B0BD000070B5044641F2185011
:1019F000C2F20000C069002802BF4FF0FF34204649
:101A000070BD5CB12178042908D1617811B1E16819
:101A1000814207D06FF00204204670BD6FF00304CE
:101A2000204670BD217E0029F4D0013911F0FF0F4E
:101A300021761EBF0024204670BD616900291CBFAD
:101A400022690A61226902F11403002A08BF00F129
:101A50002C031960E17811F0020F11D0C26A90F8DE
:101A6000211000E052694AB19368002BFAD093F933
:101A700020304DB2AB42C8BF1946F3E780F82010C2
:101A8000A06878B12046FFF72BFA00210022054616
:101A90000026FFF7DDFBE560E86AC4E90460012089
:101AA000EC62207600200024FFF76EF9204670BD1E
:101AB00070B541F21856C2F20006F469002C00F02D
:101AC0009580E06AFFF73AF8A069002841D0816B61
:101AD00000220A62C36941695A1C0FD011B9726BA6
:101AE000824219D10269002A1FBFD5692B44D361F4
:101AF000516118BF416961B972630DE011B9B26BF0
:101B0000824209D10269002A1CBF51614169002942
:101B10006DD00A61002141610121417006F124016B
:101B200090F92020F36A53B10D4600BF194691F990
:101B30002030934208DB8B680D46002BF6D1002243
:101B4000C0E90221083103E0C0E90215A8600C31A8
:101B50000860307A022849D1F06A002846D0EFF3B5
:101B60000980A063F06A40B181680029F1621CBF5E
:101B700006F12402CA600021C16002214170306276
:101B8000FFF7D2FA0020F061E17811F0010F01D0E7
:101B9000A16921B36070A07810F0020F0BD0216B07
:101BA00010F0100F03D1B06FFEF708FF03E0D6F876
:101BB0008800FEF76DFFA07810F0010F08BF70BD20
:101BC000D6F88C0020B12146BDE87040FEF760BF1A
:101BD000D6F884002146BDE87040FEF7EFBE042031
:101BE00060700020E060F06BA060F46370BDB263D1
:101BF00092E700002DE9F04F83B005466DB172B158
:101C000002F1100B9BE8100A9068D2E900A7D8B146
:101C100010F0030F2ED00026EEE00026ECE002913B
:101C20004FF001084FF0180B002700244FF0000977
:101C30004FF0000A41F21851C2F20001D1F88C00B5
:101C400030B1FEF7FFFE09E0D268C2B10026D3E052
:101C5000D1F8840044210122FEF778FE06463EB109
:101C6000CDF804A04FF0010AE4B1DDF8088061E08E
:101C70000026C1E0D268442A01D20026BCE044B16B
:101C80000026B9F1000F00F0B78014F0070240F011
:101C9000B380BBF1000F23D0ABF10102372A21D969
:101CA0000026A9E0B8F1010F14D141F2185144F215
:101CB0004432C2F20001C0F60002D1F88800D2F826
:101CC000549048B3FEF7BEFE0446002C18BF4AF0FD
:101CD000100A27E041F21850C2F20000806F1CE0A9
:101CE0004FF0180BB9F1000F08D00026B9F1480FDA
:101CF000C0F0828019F0070203D07DE04FF00009A8
:101D000001260291002800F08080CDF804A0B046A2
:101D10004FF0000A0646A7E7886F49460022FEF703
:101D200015FE0446DDF808805FFA8AF0002C67D0C3
:101D300040F0020A0120FD213070707086F802A088
:101D4000F770019870600020C6E90600C6E904003B
:101D5000C6E9020086F820B086F821B086F8221085
:101D600086F82F00C6F82B00C6F82700C6F8230017
:101D700009EB0400C6E90C494038C6E90E0542F6F5
:101D8000A560CEF25A20206044F24430C0F6000034
:101D9000007810F0040F01D1B76B12E0271D11205D
:101DA000B0EB990F0DD04FEA99096FF04300CC22A8
:101DB00000EB89013846FEF7C6FB04EB8900A0F171
:101DC000400738463421FEF7C6FB41F235404FF05C
:101DD0008071C0F60000C7E90D05F96341F21850A3
:101DE00040F6B171C7F82080C2F20000C0F60001D1
:101DF00041663046FEF7C8FF304603B0BDE8F08FBD
:101E000010F0010F03D10026F6E7B04612E741F2C9
:101E10001851C2F20001D1F88C0020B13146FEF712
:101E200037FE0026E8E7D1F884003146FEF7C6FD0C
:101E30000026E1E78148C06940F030707F49C86101
:101E40007F48406820F020007D494860084680684F
:101E500020F4406088600846C06840F02000C860F8
:101E60000846006920F0200008610846006920F457
:101E7000001008610846406920F0200048610846CB
:101E8000406920F4001048610846806920F44060F1
:101E900088610846806940F4806088610846C069AE
:101EA00020F02000C8610846406820F040004860EB
:101EB0000846806820F4405088600846C06840F0BA
:101EC0004000C8600846006920F0400008610846EC
:101ED000006920F4800008610846406920F0400055
:101EE00048610846406920F48000486108468069DE
:101EF00020F4405088610846806940F48050886131
:101F00000846C06920F04000C8614E48406820F093
:101F100002004C4948600846806820F00C00886048
:101F20000846C06840F00200C8600846006920F01A
:101F3000020008610846006920F400300861084684
:101F4000406920F0020048610846406920F40030F2
:101F500048610846806920F00C0088610846806965
:101F600040F0040088610846C06920F00200C861A2
:101F70000846406820F0080048600846806820F065
:101F8000C00088600846C06840F00800C860084685
:101F9000006920F0080008610846006920F400206C
:101FA00008610846406920F0080048610846406919
:101FB00020F4002048610846806920F0C000886154
:101FC0000846806940F0400088610846C06920F0FA
:101FD0000800C8611C48406820F004001A494860A5
:101FE0000846806820F0300088600846C06840F0ED
:101FF0000400C8600846006920F004000861084633
:10200000006920F4802008610846406920F004003F
:1020100048610846406920F480204861084680698C
:1020200020F0300088610846806940F01000886127
:102030000846C06920F00400C861704700000240F3
:1020400000000B4000800C4000800B4070B505463E
:102050000E463146284600F0C3FB0021284600F01A
:102060004BFB00240CE000BF284600F0AFFA00F064
:1020700080000028F8D10021284600F003FC641CF1
:10208000402CF0DB70BD10B5002404E0E1B201206B
:10209000FFF7DCFF641C082CF8DB002404E0E1B24D
:1020A0000220FFF7D3FF641C082CF8DB10BD10B52D
:1020B000044621460120FFF7C9FF21460220FFF711
:1020C000C5FF10BD60B90D49496841F03F010B4A99
:1020D00051600B49496841F00C01094A51600BE01D
:1020E0000649496821F03F01044A516004494968A2
:1020F00021F00C01024A51607047000000800A4044
:1021000000800E4010B50446012C06D1214800681D
:1021100040F080001F49086005E01E48006840F458
:1021200080701C4908601C48006820F001001A49B2
:1021300008601848006820F4806016490860174954
:102140000968174AB1FBF2F000E0401E0028FCD1FC
:10215000FFF7B8FF3F2000F021FB10490968104A43
:10216000B1FBF2F000E0401E0028FCD10A480068F4
:1021700040F002000849086008490968084AB1FBB4
:10218000F2F000E0401E0028FCD1204600F07CFA6E
:1021900010BD000000000B4000800B401415002013
:1021A00000093D0008B52B48C0692B49084329495F
:1021B000C86100F05BF82948006820F400702749E6
:1021C00008602749096801EB8101264AB1FBF2F05A
:1021D00000E0401E0028FCD12048006840F4007058
:1021E0001E4908601E4909681E4AB1FBF2F000E072
:1021F000401E0028FCD100BF012000F0E7F900F0EC
:10220000900030B1022000F0E1F900F090000028C9
:10221000F2D100BF012000F0D9F900F080000028C1
:10222000F8D10120FFF76EFF00BF022000F0CEF9C9
:1022300000F080000028F8D10220FFF763FFFFF7CD
:1022400022FF02201523002211460090064800F0CC
:10225000ADF808BD000002400000E02000000B4087
:102260001415002000093D00C03A00084A484068A3
:1022700020F03F00484948600846006920F03F10C0
:1022800008610846C06840F03F00C86008468068A2
:102290006FF30B0088600846406920F03F104861EA
:1022A0000846806940F6FF7108433B49886108464B
:1022B000C06920F03F00C8613848406820F00C0039
:1022C000364948600846006920F00C10086108464D
:1022D000C06840F00C00C8600846806820F0F0003C
:1022E00088600846406920F00C1048610846806903
:1022F00040F0F00088610846C06920F00C00C86119
:102300002748406840F4F060254948600846006965
:1023100024490840224908610846C06840F4F0603A
:10232000C8600846806820F47F10886008464069CD
:102330001C4908401A4948610846806940F47F10EA
:1023400088610846C06920F4F060C861164840689A
:1023500040F00300144948600846006920F003106B
:1023600008610846C06840F00300C86008468068FD
:1023700020F00F0088600846406920F00310486193
:102380000846806940F00F0088610846C06920F067
:102390000300C8617047000000800A4000800E40C2
:1023A00000000B407FF87FF800800B402DE9FF4FC5
:1023B00082B08046894692460020009057466BE0E6
:1023C0004E4663E00A2E32D00B2096FBF0F0401C04
:1023D00000F0FF0B01970B2096FBF0F100FB116062
:1023E00000EB40004100ABF1010001EB4000401C5C
:1023F000C5B25846019900F0F3F92946584600F055
:102400007BF9002410E000BF584600F0DFF800F030
:1024100080000028F8D10098204418F80010584691
:1024200000F030FA601CC4B2062CECDB28E0019707
:1024300000243D2522E02846E91705EB916189112A
:10244000491C01F0FF0B5846019900F0C9F92946D3
:10245000584600F051F900BF584600F0B7F800F0B8
:1024600080000028F8D10098204418F80010584641
:1024700000F008FA601CC4B2681CC5B2062CDADB96
:102480000098801DC0B20090701CC6B205984844E8
:10249000B04297DC781CC7B20F985044B8428FDC2A
:1024A00006B0BDE8F08F70B505460E46002409E081
:1024B000285D00B908E0285D3246214600F010F89A
:1024C000601CC4B2152CF3DB00BF06E03246214687
:1024D000202000F005F8601CC4B2152CF6DB70BD9E
:1024E0002DE9F04F06460F469246202E0ADBFF2EBE
:1024F00008DCA6F1200000EB40004FF6FF7101EA76
:10250000400901E04FF000090A2F32D00B2097FB61
:10251000F0F0401C00F0FF08D3460B2097FBF0F1D1
:1025200000FB117000EB40004100A8F1010001EB3D
:102530004000401CC5B25946404600F051F92946BA
:10254000404600F0D9F8002410E000BF404600F0FB
:102550003DF800F080000028F8D109EB04001A4A89
:10256000115C404600F08EF9601CC4B2062CECDB16
:1025700028E0D34600243D2522E02846E91705EB54
:1025800091618911491C01F0FF085946404600F04D
:1025900027F92946404600F0AFF800BF404600F05A
:1025A00015F800F080000028F8D109EB0400064A75
:1025B000115C404600F066F9601CC4B2681CC5B2EC
:1025C000062CDADBBDE8F08F8035000830B5044614
:1025D000012C06D12648006840F08000244908609C
:1025E00005E02348006840F48070214908602148D4
:1025F000006820F001001F4908601D48006840F491
:1026000080601B4908601C4909681C4AB1FBF2F054
:1026100000E0401E0028FCD10120FFF753FD1548C3
:10262000006840F002001349086013490968134A22
:10263000B1FBF2F000E0401E0028FCD11048006819
:1026400000F03F000F490968C02202EA011140EA88
:10265000010509490968094AB1FBF2F000E0401E92
:102660000028FCD1204600F00FF8284630BD0000BD
:1026700000000B4000800B401415002000093D00B5
:1026800000800A4000800E4000B5034616480068EE
:1026900020F002001449086014490968144AB1FB8B
:1026A000F2F000E0401E0028FCD10F48006820F046
:1026B00001000D4908600F48006820F480600D4952
:1026C00008600120FFF7FEFC012B06D109480068D5
:1026D00020F080000749086005E00648006820F403
:1026E00080700449086000BD00800B401415002074
:1026F00000093D0000000B4030B504460D46012C9A
:1027000006D12248006840F080002049086005E0BA
:102710001E48006840F480701C4908601C4800682E
:1027200020F001001A4908601848006820F4806011
:102730001649086017490968174AB1FBF2F000E032
:10274000401E0028FCD1FFF7BDFC45F0400000F022
:1027500025F810490968104AB1FBF2F000E0401E6C
:102760000028FCD10A48006840F0020008490860CF
:1027700008490968084AB1FBF2F000E0401E002851
:10278000FCD12046FFF780FF30BD000000000B4069
:1027900000800B401415002000093D000E49096817
:1027A0004FF6C07211400C4A11601146096800F0E2
:1027B0003F021143084A1160084909684FF6F37255
:1027C0001140064A1160114609680C2202EA2012E3
:1027D0001143024A1160704700800A4000800E4099
:1027E00030B504460D46012C06D12248006840F061
:1027F00080002049086005E01E48006840F48070B1
:102800001C4908601C48006820F001001A49086053
:102810001848006820F48060164908601749096864
:10282000174AB1FBF2F000E0401E0028FCD1FFF790
:1028300049FC45F0B800FFF7B1FF10490968104A9C
:10284000B1FBF2F000E0401E0028FCD10A4800680D
:1028500040F002000849086008490968084AB1FBCD
:10286000F2F000E0401E0028FCD12046FFF70CFFEC
:1028700030BD000000000B4000800B40141500200C
:1028800000093D0030B504460D46012C06D1214813
:10289000006840F080001F49086005E01D4800689E
:1028A00040F480701B4908601B48006840F001003C
:1028B000194908601748006820F4806015490860CD
:1028C00016490968164AB1FBF2F000E0401E0028E4
:1028D000FCD1FFF7F7FB2846FFF760FF0F490968B7
:1028E0000F4AB1FBF2F000E0401E0028FCD10A487C
:1028F000006840F002000849086008490968084A71
:10290000B1FBF2F000E0401E0028FCD12046FFF7AA
:10291000BBFE30BD00000B4000800B4014150020B2
:1029200000093D0000B5ADB0FDF73EFF242124A80D
:10293000FDF711FE2422254924A8FDF7D2FD24AA83
:1029400000212348FEF77EFD24211BA8FDF703FE8E
:10295000242220491BA8FDF7C4FD1BAA00211E4804
:10296000FEF770FD242112A8FDF7F5FD24221B4976
:1029700012A8FDF7B6FD12AA00211948FEF762FD64
:10298000242109A8FDF7E7FD2422164909A8FDF72F
:10299000A8FD09AA00211448FEF754FD2421684629
:1029A000FDF7D9FD242211496846FDF79AFD6A46D4
:1029B00000210F48FEF746FD0020FDF797FF0D4967
:1029C0000860FDF70FFF2DB000BD0000F8410008C2
:1029D000C92A00081C4200083D2C0008404200089B
:1029E000D12B000864420008212B0008884200080F
:1029F000792B00080815002030B5204CE46804F05D
:102A00000204022C01D11E4800E01D481B4CE46862
:102A100004F0010404B140080146184CE46804F0D5
:102A20000404042C05D1154C6468C4F30324631C0E
:102A30005943124CE468C4F3012424B1012C06D09C
:102A4000022C13D10DE00E4C0E4D2C6013E00B4CFC
:102A5000E468C4F30314641CB1FBF4F2094C226073
:102A600009E04FF40044074D2C6004E049F640446F
:102A7000044D2C6000BF00BF30BD000000000240CC
:102A800000127A001415002000B50D480D49C861E8
:102A90000846C0680020C8600846406800204860BA
:102AA00008468068002088600846006900200861A8
:102AB0000846406900204861FFF79EFF00BD000006
:102AC000100000080000024023E01248006800F0F7
:102AD0000200D8B910480078C0B10A20FDF734FED2
:102AE0000C48006800F0020080B90B48007868B11B
:102AF00001210A4800F0E2FB02E01920FDF724FE64
:102B00000448006800F002000028F6D01920FDF704
:102B10001BFEDAE700800C4004150020C0150020E1
:102B200023E01248006800F00800D8B91048007887
:102B3000C0B10A20FDF708FE0C48006800F008004C
:102B400080B90B48007868B100210A4800F0B6FB54
:102B500002E01920FDF7F8FD0448006800F00800C5
:102B60000028F6D01920FDF7EFFDDAE700800C40D1
:102B700004150020C015002023E01248006800F072
:102B80004000D8B910480078C0B10A20FDF7DCFD3C
:102B90000C48006800F0400080B90B48007868B12C
:102BA00003210A4800F08AFB02E01920FDF7CCFD62
:102BB0000448006800F040000028F6D01920FDF716
:102BC000C3FDDAE700000B4004150020C01500200B
:102BD0002CE01748006800F0040038BB1548007866
:102BE00020BB0A20FDF7B0FD1148006800F004008A
:102BF000C8B910480078B0B900200E490870032009
:102C0000FFF755FA0520FFF752FA00F047FA0A4994
:102C1000086002E01920FDF797FD0548006800F004
:102C200004000028F6D01920FDF78EFDD1E7000042
:102C300000800B4004150020D014002023E012482F
:102C4000006800F02000D8B910480078C0B10A2010
:102C5000FDF77AFD0C48006800F0200080B90B48B1
:102C6000007868B100210A4800F028FB02E0192032
:102C7000FDF76AFD0448006800F020000028F6D047
:102C80001920FDF761FDDAE700000B400415002074
:102C9000C015002010B5044600F0EEF920B14FF049
:102CA000FF312068FDF7FEFD10BD10B50446206819
:102CB000FDF70AFE10BD10B504460020FDF716FE14
:102CC0002060206828B92146052000F0C3F90020C3
:102CD00010BD0120FCE710B5044600F0CDF910B19D
:102CE0002068FDF721FE10BD10B5FDF75DFD10BD9C
:102CF00000B50020084908600849086008490860D4
:102D000008490860084908600849086008490860DF
:102D100000F046FB00BD0000E8140020EC14002089
:102D2000F0140020F4140020F8140020FC140020FB
:102D300000150020024800E0401E0028FCD170472A
:102D400040420F0010B5044694E8070000F0BCFBB9
:102D500010BD70B50446002510E005EB450304EBFB
:102D600083039A6805EB450304EB8303596805EB7D
:102D7000450354F8230000F0A7FB6D1CD4F8B40100
:102D8000A842EADC70BD70B505460C46012639E064
:102D9000FDF712FA062190FBF1F201FB1200206010
:102DA000FDF70AFA062190FBF1F201FB12006060C8
:102DB000FDF702FA062190FBF1F201FB1200A06080
:102DC0000026002019E000EB400155F82110226890
:102DD000914211D100EB400105EB81014968626825
:102DE000914209D100EB400105EB81018968A2689D
:102DF000914201D1012604E0401CD5F8B411814272
:102E0000E1DC00BF012EC3D070BD02210160416032
:102E10008160C0F8B0010121C0F8B411032180F82D
:102E2000B811704708B500F095F9FFF703F8FFF700
:102E3000B9F903210D480068FFF735FB0C4800681D
:102E4000401C78B10A48006800900A480AA216217E
:102E500003680B480068FDF72DFA05210848006853
:102E6000FFF721FBFFF75EFD002008BDD81400200E
:102E7000D0140020DC1400202573202564000000FD
:102E8000E4140020F0B587B004460D461646002035
:102E900004900590069094F8B801062819D2DFE84E
:102EA00000F003060A110D140120069000BF4FF038
:102EB000FF30069000BF0120059000BF4FF0FF30AB
:102EC000059000BF0120049000BF4FF0FF30049038
:102ED00000BF00BFD4F8B401401E00EB400004EB7B
:102EE000800207CA01AB07C3D4F8B411481E0BE037
:102EF00000EB400104EB8102411E01EB410104EBB8
:102F000081078ACF8AC2401E0028F1DC04F5D874FC
:102F100020680068049908442168086020684068B7
:102F2000059908442168486020688068069908442B
:102F3000216888602068A4F5D874006829688842F0
:102F400034D1D4F8B0014068696888422ED1D4F8F1
:102F5000B0018068A968884228D1D4F8B411481C0F
:102F6000C4F8B40101EB410004EB800001A90EC9D3
:102F70000EC029462046FFF706FF3068401C30602F
:102F80000420FFF794F80620FFF791F82C4800681A
:102F900000902C482CA2162103682D480068FDF7EC
:102FA00089F904212A480068FFF77DFAD4F8B001B6
:102FB0000068002818DBD4F8B0010068062813DA8E
:102FC000D4F8B001406800280EDBD4F8B0014068A6
:102FD000062809DAD4F8B0018068002804DBD4F8A8
:102FE000B0018068062802DB012007B0F0BD002197
:102FF0001FE0D4F8B001006801EB410254F8222030
:10300000904213D0D4F8B001406801EB410204EBC8
:1030100082025268904209D0D4F8B001806801EB76
:10302000410204EB82029268904201D10120DCE768
:10303000491CD4F8B4018842DBDC0020D5E700004D
:10304000D4140020E0140020257320256400000023
:10305000E4140020062809D2DFE800F00803040584
:10306000060704E003E002E001E000E000BF00BF6B
:1030700000BFFEE700BFFEE710B50748007848B97B
:10308000FDF774FB012803DD01200349087010BD22
:103090000020FCE70120FAE71015002000B5F3B08E
:1030A000FFF726FE04A8FFF7B0FE01A904A8FFF76A
:1030B0006AFE39E0FFF71CFE1E4A01A904A8FFF7CB
:1030C000E1FE1D49087008460078012824D1FFF769
:1030D0000FFE0420FEF7EBFF0620FEF7E8FF0321BA
:1030E00016480068FFF7DFF915480068401C78B102
:1030F000104800680090134813A216210368144872
:103100000068FDF7D7F8052111480068FFF7CBF9F3
:103110000848006873B000BD04A8FFF71AFE01A8B4
:10312000FFF710FEFFF706FE034800780028C1D124
:10313000401EEFE7D414002004150020D81400200E
:10314000D0140020DC14002025732025640000002A
:10315000E41400204E48C06940F480004C49C86126
:103160004C48406840F010004A49486008460069F1
:1031700020F0100008610846006920F48010086102
:103180000846C06840F01000C8600846806820F417
:10319000407088600846406920F010004861084689
:1031A000406920F4801048610846806920F440702E
:1031B00088610846806940F4407088610846C069AB
:1031C00020F01000C8610846406840F004004860E4
:1031D0000846006920F0040008610846006920F4F0
:1031E000802008610846C06840F00400C8600846B6
:1031F000806820F0300088600846406920F00400B4
:1032000048610846406920F480204861084680698A
:1032100020F0300088610846806940F03000886105
:103220000846C06920F00400C8610846406840F0C4
:10323000010048600846006920F001000861084666
:10324000006920F4803008610846C06840F0010041
:10325000C8600846806820F003008860084640691E
:1032600020F0010048610846406920F48030486140
:103270000846806920F0030088610846806940F0B4
:10328000030088610846C06920F00100C8617047EA
:103290000000024000000B4086B001460120009073
:1032A0000220019004200290082003901020049036
:1032B000202005905DF8210006B0704731B101294A
:1032C0001BD0022930D0032967D14AE090F8B821F9
:1032D000062A10D2DFE802F00B0A0306040500BF3D
:1032E00000BF00BF002280F8B82104E000BF052223
:1032F00080F8B82100BF00BF4FE090F8B821062A3F
:1033000010D2DFE802F00A0B0306040500BF00BF7D
:1033100000BF012280F8B82104E000BF032280F83A
:10332000B82100BF00BF38E090F8B821062A16D2B5
:10333000DFE802F0110803070C10032280F8B8211F
:103340000DE000BF042280F8B82108E0052280F8D3
:10335000B82104E000BF022280F8B82100BF00BFFE
:103360001BE090F8B821062A16D2DFE802F0110817
:1033700003070C10052280F8B8210DE000BF0222DF
:1033800080F8B82108E0032280F8B82104E000BFEB
:10339000042280F8B82100BF00BF00BF70470000C2
:1033A00000B51F48006820F004001D4908601D4852
:1033B000037801220421002000F042F81A48037823
:1033C00001220421002000F03BF818480378012274
:1033D0000421002000F034F815480378012204216C
:1033E000002000F02DF8134803780122042100206A
:1033F00000F026F81048037801220421002000F094
:103400001FF80E48037801220421002000F018F86C
:103410000348006840F004000149086000BD000056
:1034200000000B4000150020FC140020F8140020C0
:10343000F4140020F0140020EC140020E814002004
:1034400070B50C46002139E09AB901258D401D4028
:103450003DB11C4D2D68012686403543194E35601F
:103460001CE0184D2D6801268640B543154E356089
:1034700014E0C1F107060125B5401D403DB1114DD5
:103480002E68012585402E430E4D2E6006E00D4D21
:103490002D6801268640B5430A4E3560094D2D68DA
:1034A0000126A6403543074E356035462D68012676
:1034B000A640B543034E35604D1CE9B20829C3DB75
:1034C00070BD000000000B4070B504460D46164666
:1034D000062C3AD2DFE804F0030C151E27302846EC
:1034E000FFF7DAFE1F49096808441E49086000BF5B
:1034F0002846FFF7D1FE1C49096808441A490860AC
:1035000000BF2846FFF7C8FE184909680844174954
:10351000086000BF2846FFF7BFFE15490968084448
:103520001349086000BF2846FFF7B6FE1149096835
:1035300008441049086000BF2846FFF7ADFE0E4959
:10354000096808440C49086000BF00BF3046FFF717
:10355000A3FE0A490968084408490860FFF720FFEC
:1035600070BD0000E8140020EC140020F0140020CE
:10357000F4140020F8140020FC1400200015002092
:1035800000000000000000005F00000000070007CE
:103590000000147F147F1400242A7F2A12002313B2
:1035A0000864620036495522500000000700000000
:1035B000001C224100000041221C000014083E08AB
:1035C000140008083E0808000050300000000808F9
:1035D00008080800006060000000201008040200D5
:1035E0003E5149453E0000427F4000004261514942
:1035F00046002141454B31001814127F1000274529
:10360000454539003C4A494930000171090503002C
:10361000364949493600064949291E000036360018
:103620000000005636000000081422410000141467
:10363000141414000041221408000201510906006C
:103640003E415D551E007E1111117E007F494949A2
:1036500036003E41414122007F4141221C007F490A
:10366000494941007F09090901003E4149497A0061
:103670007F0808087F0000417F4100002040413F53
:1036800001007F08142241007F40404040007F023B
:103690000C027F007F0408107F003E4141413E0044
:1036A0007F09090906003E4151215F007F09192960
:1036B000460026494949320001017F0101003F408F
:1036C00040403F001F2040201F003F4038403F0047
:1036D0006314081463000708700807006151494526
:1036E0004300007F41410000020408102000004117
:1036F000417F0000040201020400404040404000BD
:103700000000010200002054545478007F484444D3
:103710003800384444444400384444487F00385416
:1037200054541800087E0901060018A4A4A47C00C3
:103730007F080404780000447D4000002040443DA0
:1037400000007F102844000000417F4000007C04FE
:10375000180478007C080404780038444444380095
:10376000FC242424180018242428FC007C080404C9
:103770001800085454542000043F444030003C409A
:1037800040207C001C2040201C003C4030403C007D
:103790004428102844001CA0A0A07C004464544C81
:1037A000440000083641000000007F000000004196
:1037B000360800001008101008000000000000008B
:1037C000007E43437E00007E63637E00007E737351
:1037D0007E00007E7B7B7E00007E7F7F7E0040003F
:1037E0004000400004047F04040014147F141400FB
:1037F000143E554122001C227F221400487E494974
:10380000420000081422000004027F02040010207D
:103810007F201000081C2A08080008082A1C08003D
:103820007F4171311F0002557D050200101E3F1EB1
:103830001000E0E07F020C00E4E87F224C0000185A
:103840003C3C180008080808080008080808080098
:103850007F4141417F0008082A08080010207F01AD
:10386000010000002214080014341C161400241255
:10387000242412002A2A2A2A2A0000444A5100003D
:1038800000514A44000007484B483F000C51525138
:103890003C002040413F0100221C141C22007E02FB
:1038A00002020300000077000000204A55290200B0
:1038B0007C55545544003E635D6B3E003E49494192
:1038C000220008142A142200040404041C0000002E
:1038D000000000003E41754B3E0000017C010000ED
:1038E00006090906000044445F44440000417F414A
:1038F000000000447D4000007C0404060000FE201F
:10390000201E200006097F017F0000000C0C000033
:103910003855545518007F0408107F00385454441B
:10392000280022142A1408002040443D00002649A3
:103930004949320008545454200000027802000023
:103940007E1111117E007F45454539007F49494967
:1039500036007F0101010300603E213F60007F4986
:103960004949410077087F087700414949493600B5
:103970007F1008047F007E2013087E007F08142239
:103980004100403C02017F007F020C027F007F0863
:1039900008087F003E4141413E007F0101017F0058
:1039A0007F09090906003E414141220001017F01D2
:1039B0000100074848483F001C227F221C00631476
:1039C000081463007F40407FC0000F1010107F007C
:1039D0007F407F407F007F407F40FF00017F444465
:1039E00038007F4438007F007F4444380000224183
:1039F00049493E007F083E413E00462919097F00A3
:103A00002054545478003C4A4A4930003E494D4ABB
:103A100030007C04040C0000C078447CC0003854A2
:103A2000545418006C107C106C004454542800004E
:103A30007C2010087C007C2112097C007C1028442A
:103A400000007008047C00007C0810087C007C10DA
:103A500010107C003844444438007C0404047C008A
:103A6000FC242424180038444444440004047C0406
:103A700004001CA0A0A07C003048FC483000442872
:103A8000102844007C40407CC0000C10107C0000DA
:103A90007C407C407C007C407C40FC00047C50509E
:103AA00020007C5020007C007C50502000002844E6
:103AB000545438007C1038443800085434147C00C6
:103AC00040407C06721AEADABADAEA9A7A067C4050
:103AD0004000000000000000C0202020C000C020E6
:103AE0002020C00000000000000000804080400056
:103AF000E0202020E000E00080402000E000804046
:103B00002000000000000000E0408040E000800055
:103B100000008000000080800000008080800000A5
:103B20008000000080000000808000008080808095
:103B300000004080408000000000000000000505FB
:103B40003560455555555555555545603505050064
:103B50000000000000000F0202020F000708080822
:103B600007000000000000000102050204000F0031
:103B700000000F000F01020408000F0102040800FA
:103B80000000000000000F0001000F000F04020100
:103B90000F000E01000F0000040A0A0A0F000F02B6
:103BA00002020F00180F080F18001F04040403007E
:103BB00004020502010000000000000000000000F7
:103BC000000000005F000000000700070000147FF5
:103BD000147F1400242A7F2A120023130864620031
:103BE000364955225000000007000000001C224109
:103BF00000000041221C000014083E0814000808C0
:103C00003E080800005030000000080808080800BE
:103C10000060600000002010080402003E51494589
:103C20003E0000427F400000426151494600214170
:103C3000454B31001814127F1000274545453900C7
:103C40003C4A494930000171090503003649494998
:103C50003600064949291E0000363600000000568D
:103C6000360000000814224100001414141414003B
:103C70000041221408000201510906003E415D5531
:103C80001E007E1111117E007F49494936003E41D8
:103C9000414122007F4141221C007F4949494100A6
:103CA0007F09090901003E4149497A007F08080857
:103CB0007F0000417F4100002040413F01007F081C
:103CC000142241007F40404040007F020C027F00F0
:103CD0007F0408107F003E4141413E007F090909F1
:103CE00006003E4151215F007F09192946002649FF
:103CF0004949320001017F0101003F4040403F003F
:103D00001F2040201F003F4038403F00631408142C
:103D10006300070870080700615149454300007FB0
:103D2000414100000204081020000041417F0000D2
:103D30000402010204004040404040000000010233
:103D400000002054545478007F48444438003844DC
:103D500044444400384444487F00385454541800C4
:103D6000087E0901060018A4A4A47C007F080404AE
:103D7000780000447D4000002040443D00007F105A
:103D80002844000000417F4000007C0418047800B3
:103D90007C0804047800384444443800FC2424247B
:103DA000180018242428FC007C0804041800085477
:103DB00054542000043F444030003C4040207C00EC
:103DC0001C2040201C003C4030403C00442810286F
:103DD00044001CA0A0A07C004464544C4400000893
:103DE0003641000000007F0000000041360800005E
:103DF000100810100800000000000000007E43437F
:103E00007E00007E63637E00007E73737E00007E12
:103E10007B7B7E00007E7F7F7E0040004000400074
:103E200004047F04040014147F141400143E55414C
:103E300022001C227F221400487E494942000008CB
:103E40001422000004027F02040010207F201000D2
:103E5000081C2A08080008082A1C08007F41713144
:103E60001F0002557D050200101E3F1E1000E0E0FD
:103E70007F020C00E4E87F224C0000183C3C180054
:103E80000808080808000808080808007F414141A0
:103E90007F0008082A08080010207F0101000000A8
:103EA0002214080014341C161400241224241200B6
:103EB0002A2A2A2A2A0000444A51000000514A4472
:103EC000000007484B483F000C5152513C00204035
:103ED000413F0100221C141C22007E02020203004A
:103EE000000077000000204A552902007C555455F7
:103EF00044003E635D6B3E003E4949412200081488
:103F00002A142200040404041C0000000000000025
:103F10003E41754B3E0000017C0100000609090688
:103F2000000044445F44440000417F4100000044DD
:103F30007D4000007C0404060000FE20201E2000BE
:103F400006097F017F0000000C0C00003855545515
:103F500018007F0408107F003854544428002214AD
:103F60002A1408002040443D0000264949493200F7
:103F70000854545420000002780200007E111111F0
:103F80007E007F45454539007F49494936007F011C
:103F900001010300603E213F60007F494949410023
:103FA00077087F0877004149494936007F100804A7
:103FB0007F007E2013087E007F0814224100403CD1
:103FC00002017F007F020C027F007F0808087F004B
:103FD0003E4141413E007F0101017F007F09090907
:103FE00006003E414141220001017F0101000748D6
:103FF00048483F001C227F221C0063140814630001
:104000007F40407FC0000F1010107F007F407F4036
:104010007F007F407F40FF00017F444438007F44A1
:1040200038007F007F4444380000224149493E0067
:104030007F083E413E00462919097F002054545410
:1040400078003C4A4A4930003E494D4A30007C04E1
:10405000040C0000C078447CC0003854545418004C
:104060006C107C106C004454542800007C20100814
:104070007C007C2112097C007C1028440000700820
:10408000047C00007C0810087C007C1010107C0070
:104090003844444438007C0404047C00FC24242478
:1040A000180038444444440004047C0404001CA068
:1040B000A0A07C003048FC48300044281028440070
:1040C0007C40407CC0000C10107C00007C407C4098
:1040D0007C007C407C40FC00047C505020007C50E4
:1040E00020007C007C5050200000284454543800AC
:1040F0007C1038443800085434147C0040407C065E
:10410000721AEADABADAEA9A7A067C4040000000CB
:1041100000000000C0202020C000C0202020C000DF
:10412000000000000000008040804000E0202020CF
:10413000E000E00080402000E0008040200000001F
:1041400000000000E0408040E000800000008000AF
:10415000000080800000008080800000800000005F
:10416000800000008080000080808080000040800F
:104170004080000000000000000005053560455546
:10418000555555555555456035050500000000004D
:1041900000000F0202020F000708080807000000D5
:1041A000000000000102050204000F0000000F00E3
:1041B0000F01020408000F010204080000000000C3
:1041C00000000F0001000F000F0402010F000E019C
:1041D000000F0000040A0A0A0F000F0202020F007B
:1041E000180F080F18001F0404040300040205023E
:1041F00001000000000000000000000000000000BE
:104200000000000000000000000000008800000026
:104210001800000000000000000000000000000086
:10422000000000000000000000000000000000008E
:1042300088000000180000000000000000000000DE
:10424000000000000000000000000000000000006E
:1042500000000000880000001800000000000000BE
:10426000000000000000000000000000000000004E
:10427000000000000000000088000000180000009E
:10428000000000000000000000000000000000002E
:104290000000000000000000000000008800000096
:1042A00018000000000000000000000000000000F6
:1042B00000000000B4120020440000004013002061
:1042C000C800000001000000000000000000000025
:1042D0000000000000000000F81200204400000070
:1042E00008140020C80000002800000000000000A2
:1042F000000000000000000000000000301200205C
:104300003400000064120020500000000000000093
:104310000000000043757272656E742073636F72E3
:10432000653A00004C6173742073636F72653A00E4
:1043300050726573732053454C20746F2073746101
:104340007274000003000000E80300000500000094
:10435000001000201000000000000000000000001D
:10436000000000000000000000000000000000004D
:10437000000000200010000000000000000000000D
:10438000000000000000000000000000000000002D
:104390000000000000000000C8000000AC4200085F
:1043A000D0420008F4420008040000005254582093
:1043B00056352E312E300000D84300080000002072
:1043C000C0150000FC00000824440008C0150020AF
:1043D000000900005801000801FF01FF01FF01FF73
:1043E00001FF01FF01FF01FF01FF01FF01FF01FFCD
:1043F00001FF01FF01FF01FF01FF01FF01FF01FFBD
:1044000001E45AFF011330431B0824041A14040169
:104410002072016A102C13127A1AAC0C05A09017A6
:04442000FB0200009B
:04000005080001ED01
:00000001FF
